{
  "_format": "hh-sol-artifact-1",
  "contractName": "DIDRegistry",
  "sourceName": "contracts/DIDRegistry.sol",
  "abi": [
    {
      "inputs": [],
      "stateMutability": "nonpayable",
      "type": "constructor"
    },
    {
      "anonymous": false,
      "inputs": [
        {
          "indexed": true,
          "internalType": "string",
          "name": "didId",
          "type": "string"
        },
        {
          "indexed": true,
          "internalType": "address",
          "name": "controller",
          "type": "address"
        }
      ],
      "name": "DIDCreated",
      "type": "event"
    },
    {
      "anonymous": false,
      "inputs": [
        {
          "indexed": true,
          "internalType": "string",
          "name": "didId",
          "type": "string"
        },
        {
          "indexed": false,
          "internalType": "bytes32",
          "name": "dataHash",
          "type": "bytes32"
        }
      ],
      "name": "DIDUpdated",
      "type": "event"
    },
    {
      "inputs": [
        {
          "internalType": "address",
          "name": "_admin",
          "type": "address"
        }
      ],
      "name": "addAdmin",
      "outputs": [],
      "stateMutability": "nonpayable",
      "type": "function"
    },
    {
      "inputs": [
        {
          "internalType": "string",
          "name": "_didId",
          "type": "string"
        },
        {
          "internalType": "string[]",
          "name": "_verificationMethods",
          "type": "string[]"
        },
        {
          "internalType": "string[]",
          "name": "_services",
          "type": "string[]"
        },
        {
          "internalType": "bytes32",
          "name": "_dataHash",
          "type": "bytes32"
        }
      ],
      "name": "createDID",
      "outputs": [],
      "stateMutability": "nonpayable",
      "type": "function"
    },
    {
      "inputs": [
        {
          "internalType": "string",
          "name": "_didId",
          "type": "string"
        }
      ],
      "name": "deactivateDID",
      "outputs": [],
      "stateMutability": "nonpayable",
      "type": "function"
    },
    {
      "inputs": [
        {
          "internalType": "string",
          "name": "",
          "type": "string"
        }
      ],
      "name": "didDocuments",
      "outputs": [
        {
          "internalType": "string",
          "name": "id",
          "type": "string"
        },
        {
          "internalType": "address",
          "name": "controller",
          "type": "address"
        },
        {
          "internalType": "uint256",
          "name": "timestamp",
          "type": "uint256"
        },
        {
          "internalType": "bool",
          "name": "active",
          "type": "bool"
        },
        {
          "internalType": "bytes32",
          "name": "dataHash",
          "type": "bytes32"
        }
      ],
      "stateMutability": "view",
      "type": "function"
    },
    {
      "inputs": [
        {
          "internalType": "string",
          "name": "_didId",
          "type": "string"
        }
      ],
      "name": "getDIDDocument",
      "outputs": [
        {
          "components": [
            {
              "internalType": "string",
              "name": "id",
              "type": "string"
            },
            {
              "internalType": "address",
              "name": "controller",
              "type": "address"
            },
            {
              "internalType": "string[]",
              "name": "verificationMethods",
              "type": "string[]"
            },
            {
              "internalType": "string[]",
              "name": "services",
              "type": "string[]"
            },
            {
              "internalType": "uint256",
              "name": "timestamp",
              "type": "uint256"
            },
            {
              "internalType": "bool",
              "name": "active",
              "type": "bool"
            },
            {
              "internalType": "bytes32",
              "name": "dataHash",
              "type": "bytes32"
            }
          ],
          "internalType": "struct DIDRegistry.DIDDocument",
          "name": "",
          "type": "tuple"
        }
      ],
      "stateMutability": "view",
      "type": "function"
    },
    {
      "inputs": [
        {
          "internalType": "address",
          "name": "",
          "type": "address"
        }
      ],
      "name": "isAdmin",
      "outputs": [
        {
          "internalType": "bool",
          "name": "",
          "type": "bool"
        }
      ],
      "stateMutability": "view",
      "type": "function"
    },
    {
      "inputs": [
        {
          "internalType": "string",
          "name": "_didId",
          "type": "string"
        },
        {
          "internalType": "string[]",
          "name": "_verificationMethods",
          "type": "string[]"
        },
        {
          "internalType": "string[]",
          "name": "_services",
          "type": "string[]"
        },
        {
          "internalType": "bytes32",
          "name": "_dataHash",
          "type": "bytes32"
        }
      ],
      "name": "updateDID",
      "outputs": [],
      "stateMutability": "nonpayable",
      "type": "function"
    },
    {
      "inputs": [
        {
          "internalType": "string",
          "name": "_didId",
          "type": "string"
        }
      ],
      "name": "verifyDID",
      "outputs": [
        {
          "internalType": "bool",
          "name": "",
          "type": "bool"
        }
      ],
      "stateMutability": "view",
      "type": "function"
    }
  ],
  "bytecode": "0x608060405234801561001057600080fd5b50336000908152600160208190526040909120805460ff191690911790556110668061003d6000396000f3fe608060405234801561001057600080fd5b50600436106100885760003560e01c8063704802751161005b5780637048027514610115578063784afc4e14610128578063934e591914610148578063fd8a00561461015b57600080fd5b80631b505d7d1461008d57806324c483a5146100a257806324d7806c146100cf5780633b253b2314610102575b600080fd5b6100a061009b366004610c4e565b61016e565b005b6100b56100b0366004610cde565b610354565b6040516100c6959493929190610d6b565b60405180910390f35b6100f26100dd366004610dab565b60016020526000908152604090205460ff1681565b60405190151581526020016100c6565b6100a0610110366004610cde565b610426565b6100a0610123366004610dab565b6104d3565b61013b610136366004610cde565b610551565b6040516100c69190610e33565b6100a0610156366004610c4e565b610831565b6100f2610169366004610cde565b6109d0565b83336001600160a01b03166000826040516101899190610ecb565b908152604051908190036020019020600101546001600160a01b0316146101e85760405162461bcd60e51b815260206004820152600e60248201526d139bdd08185d5d1a1bdc9a5e995960921b60448201526064015b60405180910390fd5b6000856040516101f89190610ecb565b9081526040519081900360200190206005015460ff1661024f5760405162461bcd60e51b8152602060048201526012602482015271111251081a5cc819195858dd1a5d985d195960721b60448201526064016101df565b836000866040516102609190610ecb565b90815260200160405180910390206002019080519060200190610284929190610a33565b50826000866040516102969190610ecb565b908152602001604051809103902060030190805190602001906102ba929190610a33565b50816000866040516102cc9190610ecb565b908152602001604051809103902060060181905550426000866040516102f29190610ecb565b90815260405190819003602001812060040191909155610313908690610ecb565b604051908190038120838252907f24ad87654090eeca1332838a9c5075779f618b16516f200389101d936958adb59060200160405180910390a25050505050565b805160208183018101805160008252928201919093012091528054819061037a90610ee7565b80601f01602080910402602001604051908101604052809291908181526020018280546103a690610ee7565b80156103f35780601f106103c8576101008083540402835291602001916103f3565b820191906000526020600020905b8154815290600101906020018083116103d657829003601f168201915b50505060018401546004850154600586015460069096015494956001600160a01b039092169490935060ff909116915085565b80336001600160a01b03166000826040516104419190610ecb565b908152604051908190036020019020600101546001600160a01b03161461049b5760405162461bcd60e51b815260206004820152600e60248201526d139bdd08185d5d1a1bdc9a5e995960921b60448201526064016101df565b600080836040516104ac9190610ecb565b908152604051908190036020019020600501805491151560ff199092169190911790555050565b3360009081526001602052604090205460ff1661052a5760405162461bcd60e51b815260206004820152601560248201527410591b5a5b881858d8d95cdcc81c995c5d5a5c9959605a1b60448201526064016101df565b6001600160a01b03166000908152600160208190526040909120805460ff19169091179055565b6040805160e0810182526060808252600060208301819052928201819052808201526080810182905260a0810182905260c08101919091526000826040516105999190610ecb565b90815260200160405180910390206040518060e00160405290816000820180546105c290610ee7565b80601f01602080910402602001604051908101604052809291908181526020018280546105ee90610ee7565b801561063b5780601f106106105761010080835404028352916020019161063b565b820191906000526020600020905b81548152906001019060200180831161061e57829003601f168201915b505050918352505060018201546001600160a01b0316602080830191909152600283018054604080518285028101850182528281529401939260009084015b8282101561072657838290600052602060002001805461069990610ee7565b80601f01602080910402602001604051908101604052809291908181526020018280546106c590610ee7565b80156107125780601f106106e757610100808354040283529160200191610712565b820191906000526020600020905b8154815290600101906020018083116106f557829003601f168201915b50505050508152602001906001019061067a565b50505050815260200160038201805480602002602001604051908101604052809291908181526020016000905b828210156107ff57838290600052602060002001805461077290610ee7565b80601f016020809104026020016040519081016040528092919081815260200182805461079e90610ee7565b80156107eb5780601f106107c0576101008083540402835291602001916107eb565b820191906000526020600020905b8154815290600101906020018083116107ce57829003601f168201915b505050505081526020019060010190610753565b5050509082525060048201546020820152600582015460ff161515604082015260069091015460609091015292915050565b6000846040516108419190610ecb565b908152604051908190036020019020805461085b90610ee7565b15905061089f5760405162461bcd60e51b815260206004820152601260248201527144494420616c72656164792065786973747360701b60448201526064016101df565b6040805160e08101825285815233602082015280820185905260608101849052426080820152600160a082015260c0810183905290516000906108e3908790610ecb565b908152604051908190036020019020815181906109009082610f70565b506020828101516001830180546001600160a01b0319166001600160a01b039092169190911790556040830151805161093f9260028501920190610a33565b506060820151805161095b916003840191602090910190610a33565b506080820151600482015560a082015160058201805460ff191691151591909117905560c090910151600690910155604051339061099a908690610ecb565b604051908190038120907f44ca9609d2fe597457041d7e98533a969452ef425c10a46d0dd9f074497ea1ba90600090a350505050565b600080826040516109e19190610ecb565b9081526040519081900360200190206005015460ff168015610a2d575060008083604051610a0f9190610ecb565b9081526040519081900360200190208054610a2990610ee7565b9050115b92915050565b828054828255906000526020600020908101928215610a79579160200282015b82811115610a795782518290610a699082610f70565b5091602001919060010190610a53565b50610a85929150610a89565b5090565b80821115610a85576000610a9d8282610aa6565b50600101610a89565b508054610ab290610ee7565b6000825580601f10610ac2575050565b601f016020900490600052602060002090810190610ae09190610ae3565b50565b5b80821115610a855760008155600101610ae4565b634e487b7160e01b600052604160045260246000fd5b604051601f8201601f1916810167ffffffffffffffff81118282101715610b3757610b37610af8565b604052919050565b600082601f830112610b5057600080fd5b813567ffffffffffffffff811115610b6a57610b6a610af8565b610b7d601f8201601f1916602001610b0e565b818152846020838601011115610b9257600080fd5b816020850160208301376000918101602001919091529392505050565b600082601f830112610bc057600080fd5b8135602067ffffffffffffffff80831115610bdd57610bdd610af8565b8260051b610bec838201610b0e565b9384528581018301938381019088861115610c0657600080fd5b84880192505b85831015610c4257823584811115610c245760008081fd5b610c328a87838c0101610b3f565b8352509184019190840190610c0c565b98975050505050505050565b60008060008060808587031215610c6457600080fd5b843567ffffffffffffffff80821115610c7c57600080fd5b610c8888838901610b3f565b95506020870135915080821115610c9e57600080fd5b610caa88838901610baf565b94506040870135915080821115610cc057600080fd5b50610ccd87828801610baf565b949793965093946060013593505050565b600060208284031215610cf057600080fd5b813567ffffffffffffffff811115610d0757600080fd5b610d1384828501610b3f565b949350505050565b60005b83811015610d36578181015183820152602001610d1e565b50506000910152565b60008151808452610d57816020860160208601610d1b565b601f01601f19169290920160200192915050565b60a081526000610d7e60a0830188610d3f565b6001600160a01b039690961660208301525060408101939093529015156060830152608090910152919050565b600060208284031215610dbd57600080fd5b81356001600160a01b0381168114610dd457600080fd5b9392505050565b600082825180855260208086019550808260051b84010181860160005b84811015610e2657601f19868403018952610e14838351610d3f565b98840198925090830190600101610df8565b5090979650505050505050565b602081526000825160e06020840152610e50610100840182610d3f565b905060018060a01b0360208501511660408401526040840151601f1980858403016060860152610e808383610ddb565b9250606086015191508085840301608086015250610e9e8282610ddb565b915050608084015160a084015260a0840151151560c084015260c084015160e08401528091505092915050565b60008251610edd818460208701610d1b565b9190910192915050565b600181811c90821680610efb57607f821691505b602082108103610f1b57634e487b7160e01b600052602260045260246000fd5b50919050565b601f821115610f6b57600081815260208120601f850160051c81016020861015610f485750805b601f850160051c820191505b81811015610f6757828155600101610f54565b5050505b505050565b815167ffffffffffffffff811115610f8a57610f8a610af8565b610f9e81610f988454610ee7565b84610f21565b602080601f831160018114610fd35760008415610fbb5750858301515b600019600386901b1c1916600185901b178555610f67565b600085815260208120601f198616915b8281101561100257888601518255948401946001909101908401610fe3565b50858210156110205787850151600019600388901b60f8161c191681555b5050505050600190811b0190555056fea264697066735822122040af768486c11f84a9939ea6118a2db705cafe6c922b6909e0c8530727c9a72b64736f6c63430008130033",
  "linkReferences": {},
  "deployedLinkReferences": {}
}